:1000000019C033C032C031C030C02FC02EC02DC087
:100010002CC02BC02AC029C028C027C026C025C09C
:10002000DAC023C022C021C020C01FC01EC01DC016
:100030001CC01BC011241FBECFEFD4E0DEBFCDBF5C
:1000400011E0A0E0B1E0E6E4F2E002C005900D921C
:10005000AC30B107D9F721E0ACE0B1E001C01D92AE
:10006000AD30B207E1F7D2D0ECC0CACF98B19D7FD6
:1000700098B998B1916098B99BB1907F8F70892B96
:100080008BB988B18E7F88B9089598B1926098B97C
:1000900098B1916098B99BB1907F8F70892B8BB983
:1000A00088B18E7F88B90895EF92FF920F931F93C6
:1000B000CF937C01C0E00DC082958F70E6DFF80120
:1000C0008081E3DF8FEC97E00197F1F700C000003B
:1000D000CF5F87010C0F111DF80180818111ECCFDA
:1000E000CF911F910F91FF90EF9008951F93CF93A1
:1000F000DF93C82FD62F813041F410E8160F812FDF
:1001000082958F70B3DF812FB1DFC23039F4D054C4
:100110008D2F82958F70AADF8D2FA8DFDF91CF9171
:100120001F9108958FE39CE90197F1F700C000004B
:1001300083E09CDF8FE19EE40197F1F700C00000AF
:1001400083E094DF8FE19EE40197F1F700C00000A7
:1001500083E08CDF8FE19EE40197F1F700C000009F
:1001600082E084DF8FEC97E00197F1F700C0000098
:1001700082E07CDF88E07ADF8FEC97E00197F1F78F
:1001800000C0000080E072DF8CE070DF8FEC97E051
:100190000197F1F700C0000080E068DF81E066DFD2
:1001A0008FEC97E00197F1F700C0000080E05EDF80
:1001B00086E05CDF8FEC97E00197F1F700C000006C
:1001C00080E054DF8CE052DF089587E087B908951E
:1001D0008FEF8AB908951F920F920FB60F921124D4
:1001E0008F9380910C018F5F80930C018F910F9002
:1001F0000FBE0F901F901895E8DFEADF93DF60E0F5
:1002000080E074DF80E091E04FDF0895F5DF98B182
:1002100084E0982798B92FE33DE093E021503040E7
:100220009040E1F700C0000098B1892788B92FE31A
:100230003DE083E0215030408040E1F700C0000005
:06024000E6CFF894FFCFA9
:0C024600546865726D6F73746174000081
:00000001FF
