:100000000C9434000C9446000C9446000C9446006A
:100010000C9446000C9446000C9446000C94460048
:100020000C9446000C9446000C9446000C94460038
:100030000C9446000C9446000C9472000C944600FC
:100040000C9446000C9446000C9446000C94460018
:100050000C9446000C9446000C9446000C94460008
:100060000C9446000C94460011241FBECFEFD8E03C
:10007000DEBFCDBF21E0A0E0B1E001C01D92A13004
:10008000B207E1F70E9483000C94BF000C940000BB
:1000900084B5826084BD8FE087BDEEE6F0E08081AC
:1000A000826080837894089585B5816085BD0895C8
:1000B000CF93DF9300D0CDB7DEB709C080910001A8
:1000C0004AE0BE016F5F7F4F90E00E948A008091FE
:1000D00000018F3198F3109200010F900F90DF9183
:1000E000CF9108951F920F920FB60F9211248F9304
:1000F000809100018F5F809300018F910F900FBE60
:100100000F901F9018950E9448000E9454000E9472
:100110005800FDCFBB274A3031F4992322F4BDE2C9
:10012000909581959F4F0C949600BB27FB01552716
:10013000AA27880F991FAA1FA41710F0A41B839544
:100140005051B9F7A05DAA3308F0A95DA1930097BB
:1001500079F7B111B1931192CB010C94AF00DC018E
:10016000FC01672F71917723E1F7329704C07C91EE
:100170006D9370836291AE17BF07C8F30895F8942A
:02018000FFCFAF
:00000001FF
